:020000020000FC
:2000000000400074084008140800683A00000000000000000000000000000000000000001E
:2000080006C00074DEE7101406800074D6A66514008000741087341400C0007418C7381494
:2000100010C00326100000151080010410FFFD360010C4C00010CB80003FFF06DEFFFD04CA
:20001800DFC00215DF000115DF000104E03FFF1500000E06D0E00417E0BFFF171885883A13
:200020001080000311803FCC3180201C31BFE004010000742105A404E17FFF17001017C030
:20002800E0BFFF1710800044E0BFFF15E0BFFF1710800810103FEF1EE037883ADFC0011733
:20003000DF000017DEC00204F800283ADEFFFC04DFC00315DF000215DF0002040080007459
:200038001085B004E0BFFF15D0A00417E0BFFE1500C0007418C5B004008000B4108C0804CE
:2000400010C00035D0A004171007883A008000B4108C090410C00035D0E00017008000B45A
:20004800108C0A0410C00035D0E00117008000B4108C0B0410C0003500000706008000B4FC
:20005000108C0F0410800037108000C81000021ED0200315001005C0D0A003171004C03A1D
:20005800103FF61E0005883AE037883ADFC00117DF000017DEC00204F800283ADEFFFB04FE
:20006000DFC00115D9400215D9800315D9C004150080007410866A0411400017D8800204BA
:20006800D880001529C00217100D883A0080007410825504200B883A388001153809883A8D
:2000700000109300DFC00117DEC00504F800283ADEFFFC04DFC00115D9800215D9C0031562
:2000780022000217D8800204D8800015100F883A0080007410825504280D883A40800115D5
:20008000400B883A00102940DFC00117DEC00404F800283ADEFFFB04DC800315DC400215A0
:20008800DC000115DFC004152025883A2823883A3821883AD98000059009883A880B883A71
:20009000D80D883A01C0004404000B0E88C00117843FFFC4183EE83A103FF72600BFFFC43B
:20009800DFC00417DC800317DC400217DC000117DEC00504F800283A0005883ADFC004176D
:2000A000DC800317DC400217DC000117DEC00504F800283ADEFFE304DF001B15DDC01A1501
:2000A800DD001715DC801515DC001315DFC01C15DD801915DD401815DCC01615DC401415F4
:2000B000D90010152829883AD9C011153025883A0021883AD8000F15D8000E150039883A74
:2000B800D8000915D8000D15D8000C15D8000B15002F883A9140000301C000449480004425
:2000C00029003FCC2100201C213FE0042000152681C035263C002016803FF61E0080094442
:2000C8002081501E073FFFC400800284D9C00C15D8000F15D8000E15DF000915D8800D15D2
:2000D000D8000B15914000033821883A9480004429003FCC2100201C213FE00401C00044F7
:2000D800203FEB1EB805883ADFC01C17DF001B17DDC01A17DD801917DD401817DD0017178C
:2000E000DCC01617DC801517DC401417DC001317DEC01D04F800283A008000848080172608
:2000E800008000C480BFD31E2C7FF40488C03FCC0080024410C02136D8C009171801271693
:2000F000D9000917014002840010BF401007883A88803FCC1080201C10BFE0041887883A55
:2000F800D8C00915003FC30600800C042080B3260080094420812726040000842C7FF4043B
:2001000088C03FCC0080024410C00A36E000B416E009883A014002840010BF401007883AB2
:2001080088803FCC1080201C10BFE00418B9883A003FB00600800B842080A32600801B04A6
:200110002080A326D8C009171800A716D8000F1528BFEA0410803FCC00C0080418802836AB
:200118001085883A1085883A00C0007418C11F0410C5883A110000172000683A000105085A
:2001200000010500000105000001050000010500000105000001050000010500000105008F
:200128000001050000010500000107340001051C0001050000010500000105000001050035
:200130000001051C00010500000105000001050000010500000105000001079C00010500C5
:200138000001050000010500000107AC0001050000010680000105000001050000010678CF
:200140000021883A003F7B0600C0040400800044D8C00D15D8000C15D8800B15D8C00E1788
:200148001805003A10005A1ED8800C171000781ED8801117D8000A151440001711C00104DF
:20015000D9C0111588005A26D8C00B17DCC0004405800244182B003ADCC012150000050618
:2001580021000C04990000059CC0004480000F268023883AD9400D178809883A0010BE4060
:20016000D9000D17100B883A1021883A0010BF408889C83AB13FF20EA8009F1E21000DC449
:20016800990000059CC00044803FF11ED880121798A3C83AD8C009171C4BC83A0140130E2A
:20017000D8C00044188008049880102E00800C0428FFFFC4988000059900004400C0080E4F
:20017800D8C00044188008042080052E00800C0420800005210000449945883A20BFF81EE5
:20018000D88012172027883A20A3C83AD8C00A171C45883AE0A1C83AD8800F17100080267D
:200188001805003A1000AE260400A516B805883A0440950E102F883A1461883A00000206B7
:20019000BDC0004485FFAE269CFFFFC498800003A0C00117D9001017D8800005A00B883A7B
:20019800D80D883A01C00044183EE83A103FF42605FFFFC4003F3B0600C00404D8C00D15F1
:2001A000D8000C15D8C00E171805003A103FA626D8C00C171800171ED8C01117D8000A1558
:2001A8001C40001719C00104D9C01115883FA61EDCC00044DCC01215003FBE06040000846E
:2001B000D9C00F15003F0B06040000C4003F090600800044040000C4D8800E15003F0506BB
:2001B8000007883A003F4E0600800044D8800915003F5706D8801117144000171080010475
:2001C000D880111588000716D8000A15003F8D06D8C011171C40001718C00104D8C0111565
:2001C800883FF90E008000440463C83AD8800A15003F8406040000448700080ED9001017F7
:2001D000A00B883A01800804E1FFFFC400102140103FC71EE5C5883A15FFFFC4D8C01117CA
:2001D800D9001017800F883A18800017A0C00117A00B883AD8800005D80D883A183EE83AA6
:2001E000103FBB1ED8801117BDC000440021883A10800104D8801115003ED6060080020400
:2001E800D8800D15D8000C15003FB606D8C011171CC000179809883A0010A100E0A1C83A3F
:2001F0001023883A0400070ED9001017A00B883A01800804800F883A00102140103FA41E14
:2001F800BC2F883AA0C00117D9001017980D883AA00B883A880F883A183EE83A103F9C1E14
:20020000D8801117BC6F883A0021883A10800104D8801115003EB706210015C4003F5106F0
:2002080004003B16D8C00A171805003A103F7F1EA0C00117D900101700800B44D8800005E1
:20021000A00B883AD80D883A01C00044183EE83A103F871EB8800044003F75060007883A4A
:20021800003EDB06A0C00117D9001017D9400005D80D883AA00B883A183EE83A103F7C1E9C
:20022000BDC00044003E9B06102F883A0021883A003E9806A0C00117D9000005D900101708
:20022800A00B883AD80D883A800F883A183EE83A103F6F1EBC2F883A0021883A003E8D069C
:20023000D9001017A00B883A01800C04800F883A00102140103F661EBC05883A003F5406FF
:20023800A0C00117D900101700800B44D8800005A00B883AD80D883A01C00044183EE83A71
:20024000103F5B1EBDC00044043F480E003FEC06D9001017A00B883A01800804800F883A00
:2002480000102140103F521EBC2F883A003FBD060080007410866A042013883A11000017A2
:200250002805883A300F883A480B883A100D883A001029412880000BDEFFFA04DCC00315EE
:200258001080020CDC800215DC400115DFC00515DD000415DC0000152825883A2027883A8B
:200260003023883A100020262940008F28000F1601C01B0E3821883A0501000400000206B7
:200268000400170E9140008F880D883A9809883A800F883AA400010E01C100040010A300B6
:2002700088A3883A80A1C83A00BFF5169080000B00FFFFC4108010149080000D1805883A07
:20027800DFC00517DD000417DCC00317DC800217DC400117DC000017DEC00604F800283A5F
:200280000007883A003FF50600FFFFC4003FF30620800007100005262007883A18C000447A
:2002880018800007103FFD1E1905C83AF800283ADEFFFD04DC0000150400007484073404C9
:20029000DC400115800000152023883A2809883A300B883A380D883ADFC002150010D28073
:200298001007883A00BFFFC4188006261805883ADFC00217DC400117DC000017DEC00304C4
:2002A000F800283A80800017103FF826888000151805883ADFC00217DC400117DC00001785
:2002A800DEC00304F800283A29001B2E28001A16008000440007883A01C007C4000003064B
:2002B00019C0132618C0004428000416294B883A1085883A293FFA3610000D260007883A8D
:2002B800214002362149C83A1886B03A1004D07A280AD07A103FFA1E300002262005883A19
:2002C000F800283A1809883A2005883AF800283A0007883A003FF806008000440007883A0D
:2002C800003FEF06DEFFFE04DC000015DFC001150021883A20000C16000D883A28000E161D
:2002D0000010AA801007883A8005003A1000011E00C7C83A1805883ADFC00117DC000017BB
:2002D800DEC00204F800283A0109C83A04000044000D883A283FF20E014BC83A8021003A55
:2002E000003FEF06DEFFFF04DFC00015018000442807883A2000041628000C16DFC0001746
:2002E800DEC001040010AA810109C83A28000B16180B883A018000440010AA800085C83A58
:2002F000DFC00017DEC00104F800283A014BC83ADFC00017DEC001040010AA810147C83A0F
:2002F800003FF306000D883A0010AA81018000440010AA8120000A260007883A2080004C9F
:200300001005003A2008D07A1000011E1947883A294B883A203FF91E1805883AF800283AE6
:200308000007883A1805883AF800283A2900051EF800283A20800017210001042880001593
:200310002940010429BFFB1EF800283ADEFFFF040100007421067204014000742945B0043B
:200318000180007431867204DFC000150010C2C00100007421000804014000742940080491
:2003200001800074318008040010C2C0010000742105A404014000742945A4040180007476
:200328003185B0040010C2C00010F800DFC00017DEC001040010FFC1DEFFFE040009883ADE
:20033000DFC00115DC0000150010DF000010DDC0010000742105A804200B883A200D883A48
:2003380000110880D120D017D160D117D1A0D21700100CC01021883A010000440010EE406F
:200340008009883A001145C0008000741086710410C0001700800074108734041800012654
:200348001800683AF800283ADEFFFC04DC800215DC400115DFC003152823883ADC0000154A
:200350003025883A01400304200019160010BF4000C0007418C6050410C9883A20001426C0
:2003580020800217043FFFC4108000CC10000C2620800017880B883A900D883A1080061710
:2003600010000726103EE83A1021883A10000C0E0010D0800407C83A043FFFC40000020638
:200368000010D08000C0034410C00015000004060010D08000C0144410C00015043FFFC4BC
:200370008005883ADFC00317DC800217DC400117DC000017DEC00404F800283A010000745C
:200378002105F0040140007429466E040010F8C1DEFFFF04DFC0001500112EC00080004495
:200380001001703ADFC00017DEC00104F800283A2080001721C0021711000A040010E90125
:200388002080001721C0021711000A040010E301210000173890000C2993883A1010C03AED
:200390002807883A000008062180003730A0000C100003261980000518C00044000002069F
:200398001940031E4000081E1A7FF736194002261945C83AF800283A3890000C1000021E60
:2003A00000BFFEC4F800283A00BFFD44F800283A21000017298F883A20C001040000060665
:2003A8001880003710BFFFEC1000032628800007294000442080003529FFF9363005883AF4
:2003B000F800283A008000741086710410C000170080007410873404180001261800683A31
:2003B800F800283ADEFFFD04DC000015DFC00215DC400115014003042021883A2000121681
:2003C0000010BF4000C0007418C6050410C9883A20000D26208000171080041710000F265E
:2003C800103EE83A1023883A8009883A001129000009883A88000C0E0010EC400447C83A35
:2003D000013FFFC4000003060010EC40013FFFC400C0144410C00015000003068009883A71
:2003D800001129000009883A2005883ADFC00217DC400117DC000017DEC00304F800283A3B
:2003E000F800283A3005883AF800283ADEFFFF04DFC000152000032620800217000D883AED
:2003E80010000C1E00800074108671041080001700C0007418C7340410000226103EE83A22
:2003F0001007883A0080058401BFFA84188000150000060628800017214001152080001529
:2003F8002880001729000015110001153005883ADFC00017DEC00104F800283AF800283ABD
:20040000DEFFFD04DC4001152023883A2809883A300B883A380D883ADC000015DFC0021529
:20040800001111401021883A1009883A01400304100010160010BF4000C0007418C60504FC
:2004100010C5883A1100001710C0021710800117890000158009883A88C002158880011516
:20041800DFC00217DC400117DC000017DEC0030400112901DFC00217DC400117DC00001726
:20042000DEC00304F800283ADEFFFA04DCC00315DC400115DC00001504407FC4040000740C
:200428008406080404C00044DD000415DC8002153029883A2825883A980D883A200B883A2F
:20043000880F883A8009883ADFC0051500110000900B883A813FFD04880F883A000D883AF8
:200438000011000081000304A00B883A980D883A880F883ADFC00517DD000417DCC0031775
:20044000DC800217DC400117DC000017DEC0060400110001DEFFF904DD0004152829883A63
:200448000140007429466E04DD400515DCC00315DC000015DFC00615DC800215DC400115C3
:20045000302B883A2027883A00112F401021883A100002260025883A00000A069809883A61
:20045800001136401021883A1000051E047FFFC4043FFB4400002B06043FFCC400002906AC
:20046000048000448009883A001140001023883A100033161009883A014003040010BF4098
:2004680001400074294605041149883A0090003410BFFFC4A086703A9004C03A20C0021580
:200470001000101E00800074108670042180001711C0001718900034208002152807883A0C
:20047800000B883A18800017294000441180031E188002171000010E193FDF1E18C0030485
:20048000397FF82E8080031710001726980B883AA00D883AA80F883A103EE83A1021883A67
:200488001000110E8809883A001129000080007410867104108000171000031E00C000748D
:2004900018C7340400000206103EE83A1007883A0405C83A047FFFC41880001500000206DE
:200498001021883A003FEF068805883ADFC00617DD400517DD000417DCC00317DC800217B6
:2004A000DC400117DC000017DEC00704F800283ADEFFFD0400800084DC400115DC0000150D
:2004A800DFC0021501400304044000748C4605042021883A1100080E0010BF401445883A4F
:2004B0008009883A01400304100002150010BF401445883A10000015DFC00217DC40011737
:2004B800DC000017DEC00304F800283A000170FAF800283ADEFFFB04DCC00315DC8002156A
:2004C000DC400115DC000015DFC004152C0000172823883A2027883A0010A100148000445F
:2004C8000000040681000217001147C01000052684000017980B883A900D883A847FF91EA4
:2004D0000021883A8005883ADFC00417DCC00317DC800217DC400117DC000017DEC005042F
:2004D800F800283ADEFFFC040080007410866C04DC40011514400017DC8002152025883ABC
:2004E000DFC00315DC000015000012068C0002178009883A0010A100100D883A8085883AF5
:2004E80010BFFFC700C00BC48009883A900B883A10C0011E31BFFFC49185883A1080000717
:2004F00010C001261000021E001147C0100005268C4000170080007410866C0488BFEB1E45
:2004F8000023883A8805883ADFC00317DC800217DC400117DC000017DEC00404F800283A5B
:2005000001400074294605040007883A280D883A288000172940030410000A1E01400074D2
:2005080029467004288000173100001510C002161805883AF800283A1805883A28C00015EE
:20051000F800283A18C00044008008043180030418BFEF1E00BFFA04F800283ADEFFFE0437
:20051800DC400015000B883A2023883ADFC0011500114BC08809883A0011678031FFFFC4B1
:200520003000061E00000A0639FFFFC400BFFFC421000044294000443880052620C0000302
:200528002880000318BFF8261885C83AF800283A0005883AF800283AF800283ADEFFF304CB
:200530000080007410866B04DF000B151700001700800034108000041005003AD88002157F
:20053800E0800C04DD800915DD400815DFC00C15DDC00A15DD000715DCC00615DC800515DC
:20054000DC400415DC000315282D883AD9000115D8800015282B003AE4400C17880012266B
:20054800DDC00017888001178C802217143FFFC480000B169027003AA800171E9800051E3A
:200550008409883A2105883A1485883A10C02017B0C01226843FFFC400BFFFC480BFF61EEF
:20055800D880021710003226DFC00C17DF000B17DDC00A17DD800917DD400817DD00071775
:20056000DCC00617DC800517DC400417DC000317DEC00D04F800283A8409883A88C0011765
:200568002105883A1445883A18FFFFC4118002171C00182610000215303FE6268D0001174B
:200570009800121E00C000441C06983A908040171884703A10000D26908041171884703A0D
:2005780010000E1E2105883A1485883A11400017D9000117303EE83A88800117A0BFC61E98
:20058000B8800017147FD326003FC306303EE83A003FF9068C000115003FE7062105883AF4
:200588001485883A11000017303EE83A003FF2068880011710000B1E8900001720000A26C0
:20059000B9000015900002269009883A000000008809883A00000000BC400017883FB11E6E
:20059800003FC10689000017882F883A2023883A883FAC1E003FBC0620000226002AF070BB
:2005A00000000106002AF0B0003FFF06000114B865747942206425206425203D00000A20EC
:2005A8007665642F61746A2F61755F67305F7472000000007665642F6C756E2F0000006CEE
:2005B00000000000000000000000000000000000000000000000000000000000000000002B
:2005B800000000000000000000000000000000000000000000000000000000000000000023
:2005C00000000000000000000000000000000000000000000000000000000000000000001B
:2005C800000000000000000000000000000000000000000000000000000000000000000013
:2005D00000000000000000000000000000000000000000000000000000000000000000000B
:2005D800000000000000000000000000000000000000000000000000000000000000000003
:2005E0000000000000000000000000000000000000000000000000000000000000000000FB
:2005E8000000000000000000000000000000000000000000000000000000000000000000F3
:2005F0000000000000000000000000000000000000000000000000000000000000000000EB
:2005F8000000000000000000000000000000000000000000000000000000000000000000E3
:200600000000000000000000000000000000000000000000000000000000000000000000DA
:200608000000000000000000000000000000000000000000000000000000000000000000D2
:200610000000000000000000000000000000000000000000000000000000000000000000CA
:200618000000000000000000000000000000000000000000000000000000000000000000C2
:200620000000000000000000000000000000000000000000000000000000000000000000BA
:200628000000000000000000000000000000000000000000000000000000000000000000B2
:200630000000000000000000000000000000000000000000000000000000000000000000AA
:200638000000000000000000000000000000000000000000000000000000000000000000A2
:2006400000000000000000000000000000000000000000000000000000000000000000009A
:20064800000000000000000000000000000000000000000000000000000000000000000092
:2006500000000000000000000000000000000000000000000000000000000000000000008A
:20065800000000000000000000000000000000000000000000000000000000000000000082
:2006600000000000000000000000000000000000000000000000000000000000000000007A
:20066800000000000000000000000000000000000000000000000000000000000000000072
:20067000000000000000000003020100070605040B0A09080F0E0D0C131211101716151456
:200678001B1A19181F1E1D1C00000000000117A0000117A8000117B0000000000000000046
:2006800000000000000000000000000000000000000000000000000000000000000000005A
:20068800000000000000000000000000000000000000000000000000000000000000000052
:2006900000000000000000000000000000000000000000000000000000000000000000004A
:20069800000000000000000000000000000000000000000000000000000000000000000042
:2006A00000000000000000000000000000000000000000000000000000000000000000003A
:2006A800000000000000000000000004000000000001000A000000000002000A0000000017
:2006B00000000000000000000000000000000000000116A0000000000000000000010E2044
:2006B80000010E1000000000000000000000000000023040000119B8000119B8000116B422
:2006C00000000000000000000000000000010F84000000000000000000000000000117EC82
:2006C8000000000000000000000117EC0000000000000000000117EC00000000000000000A
:2006D00000000000000000000000000000000000000000000000000000000000000000000A
:2006D800000000000000000000000000000000000000000000000000000000000000000002
:2006E0000000000000000000000000000000000000000000000000000000000000000000FA
:2006E8000000000000000000000000000000000000000000000000000000000000000000F2
:2006F0000000000000000000000000000000000000000000000000000000000000000000EA
:2006F8000000000000000000000000000000000000000000000000000000000000000000E2
:200700000000000000000000000000000000000000000000000000000000000000000000D9
:200708000000000000000000000000000000000000000000000000000000000000000000D1
:200710000000000000000000000000000000000000000000000000000000000000000000C9
:200718000000000000000000000000000000000000000000000000000000000000000000C1
:20072000000000000000000000000000000000000000000000000000000000000000002099
:2007280000000008000000140000000100021000000116E0000116E0000119B0000119B000
:20073000000117EC000117ECFFFFFFFF0000000000000000000000000000000000000000A5
:200738000000000000000000000000000000000000000000000000000000000000000000A1
:20074000000000000000000000000000000000000000000000000000000000000000000099
:20074800000000000000000000000000000000000000000000000000000000000000000091
:20075000000000000000000000000000000000000000000000000000000000000000000089
:00000001FF
